S01700005265616C2074696D6520636C6F636B2E737265638E
S11300000C942A000C9447000C9447000C9447006D
S11300100C9447000C942E080C9447000C94470051
S11300200C9447000C9447000C9447000C94470030
S11300300C9447000C9447000C9447000C94470020
S11300400C9447000C9447000C9447000C94470010
S11300500C94470011241FBECFE5D8E0DEBFCDBF0E
S113006011E0A0E6B0E0E4E5F1E102C005900D92F4
S1130070A431B107D9F711E0A4E1B1E001C01D92A8
S1130080AD32B107E1F70E9497050C94A8080C94CF
S113009000006FEF0E945F020895CF93DF93CDB706
S11300A0DEB72A970FB6F894DEBF0FBECDBFDE01D0
S11300B01196E0E6F0E09AE001900D929150E1F79C
S11300C0FE01E60FF11D61810E947E022A960FB6A1
S11300D0F894DEBF0FBECDBFDF91CF910895CF93CB
S11300E0C82F60E041E00E948C008C2F61E041E069
S11300F00E948C008C2F62E041E00E948C008C2FC7
S113010063E041E00E948C00CF9108950E94740343
S113011008950E949A030895843409F471C08534C3
S113012048F4823499F1833408F04DC0813409F0E5
S113013083C00FC0823651F1833620F4813609F032
S11301407BC007C0833609F43EC0843609F074C00E
S113015057C0413069F42AB381E090E0AC0102C099
S1130160440F551F6A95E2F7BA01622B6ABB0895E2
S11301702AB381E090E0AC0102C0440F551F6A9598
S1130180E2F7BA01609562236ABB0895413069F4CD
S113019027B381E090E0AC0102C0440F551F6A957B
S11301A0E2F7BA01622B67BB089527B381E090E0C0
S11301B0AC0102C0440F551F6A95E2F7BA0160957D
S11301C0622367BB0895413069F424B381E090E071
S11301D0AC0102C0440F551F6A95E2F7BA01622BC5
S11301E064BB089524B381E090E0AC0102C0440FE5
S11301F0551F6A95E2F7BA016095622364BB0895BE
S1130200413069F421B381E090E0AC0102C0440FB5
S1130210551F6A95E2F7BA01622B61BB089521B3B9
S113022081E090E0AC0102C0440F551F6A95E2F7EB
S1130230BA016095622361BB0895843409F471C0E6
S1130240853448F4823499F1833408F04DC0813404
S113025009F083C00FC0823651F1833620F4813611
S113026009F07BC007C0833609F43EC0843609F028
S113027074C057C0413069F42BB381E090E0AC0105
S113028002C0440F551F6A95E2F7BA01622B6BBB9B
S113029008952BB381E090E0AC0102C0440F551FD8
S11302A06A95E2F7BA01609562236BBB0895413009
S11302B069F428B381E090E0AC0102C0440F551FFB
S11302C06A95E2F7BA01622B68BB089528B381E00E
S11302D090E0AC0102C0440F551F6A95E2F7BA01E1
S11302E06095622368BB0895413069F425B381E0C9
S11302F090E0AC0102C0440F551F6A95E2F7BA01C1
S1130300622B65BB089525B381E090E0AC0102C087
S1130310440F551F6A95E2F7BA016095622365BBE5
S11303200895413069F422B381E090E0AC0102C049
S1130330440F551F6A95E2F7BA01622B62BB089518
S113034022B381E090E0AC0102C0440F551F6A95CE
S1130350E2F7BA016095622362BB0895843409F41C
S11303603DC0853440F48234F9F0833450F581344F
S113037009F040C00CC08236B9F0833618F48136D7
S1130380C9F505C08336E9F08436A1F527C02BB33F
S113039081E090E0AC0102C0440F551F6A95E2F77A
S11303A0BA0162276BBB089528B381E090E0AC01E9
S11303B002C0440F551F6A95E2F7BA01622768BB71
S11303C0089525B381E090E0AC0102C0440F551FAD
S11303D06A95E2F7BA01622765BB089522B381E00A
S11303E090E0AC0102C0440F551F6A95E2F7BA01D0
S11303F0622762BB0895843409F44EC0853440F406
S1130400823431F18334B0F5813409F057C00EC021
S11304108236F1F0833620F4813609F04FC006C0ED
S1130420833641F1843609F049C036C029B381E0EE
S113043090E0062E02C0880F991F0A94E2F730E07C
S11304408223932302C0959587956A95E2F70895D0
S113045026B381E090E0062E02C0880F991F0A940B
S1130460E2F730E08223932302C0959587956A953D
S1130470E2F7089523B381E090E0062E02C0880FCE
S1130480991F0A94E2F730E08223932302C09595E2
S113049087956A95E2F7089520B381E090E0062EEF
S11304A002C0880F991F0A94E2F730E08223932355
S11304B002C0959587956A95E2F708950895843466
S11304C0D9F0853438F4823499F0833498F4813443
S11304D0A1F40CC0823661F0833618F4813669F4D5
S11304E005C0833639F0843641F406C06ABB0895EA
S11304F067BB089564BB089561BB08958434D9F043
S1130500853438F4823499F0833498F48134A1F436
S11305100CC0823661F0833618F4813669F405C064
S1130520833639F0843641F406C06BBB089568BB4A
S1130530089565BB089562BB08958434D9F0853469
S113054038F4823499F0833498F48134A1F40CC0E3
S1130550823661F0833618F4813669F405C0833637
S113056039F0843641F406C089B3089586B30895FA
S113057083B3089580B30895843409F1853438F43D
S11305808234A9F08334B8F48134E1F40CC08236A7
S113059071F0833618F48136A9F405C0833659F016
S11305A0843681F40CC08BB380958BBB089588B3DB
S11305B0809588BB089585B3809585BB089582B3E3
S11305C0809582BB0895843409F471C0853448F45D
S11305D0823499F1833408F04DC0813409F083C02A
S11305E00FC0823651F1833620F4813609F07BC086
S11305F007C0833609F43EC0843609F074C057C07E
S1130600413069F42BB381E090E0AC0102C0440FA7
S1130610551F6A95E2F7BA01622B6BBB08952BB3A1
S113062081E090E0AC0102C0440F551F6A95E2F7E7
S1130630BA01609562236BBB0895413069F428B315
S113064081E090E0AC0102C0440F551F6A95E2F7C7
S1130650BA01622B68BB089528B381E090E0AC0135
S113066002C0440F551F6A95E2F7BA0160956223F0
S113067068BB0895413069F425B381E090E0AC0192
S113068002C0440F551F6A95E2F7BA01622B65BB9D
S1130690089525B381E090E0AC0102C0440F551FDA
S11306A06A95E2F7BA016095622365BB089541300B
S11306B069F422B381E090E0AC0102C0440F551FFD
S11306C06A95E2F7BA01622B62BB089522B381E016
S11306D090E0AC0102C0440F551F6A95E2F7BA01DD
S11306E06095622362BB08956F70823481F0833415
S11306F018F48134F1F405C0833479F08434C9F4F6
S113070012C08BB3807F8BBB8BB3862B8BBB88B320
S1130710807F88BB88B3862B88BB85B3807F85BBED
S113072085B3862B85BB82B3807F82BB82B3682B63
S113073062BB08956295607F823481F0833418F43B
S11307408134F1F405C0833479F08434C9F412C0DF
S11307508BB38F708BBB8BB3862B8BBB88B38F70A3
S113076088BB88B3862B88BB85B38F7085BB85B364
S1130770862B85BB82B38F7082BB82B3682B62BB2E
S113078008958EBB9FBB6DBBE29AE19AE199FECFBF
S113079008958EBB9FBBE19A8DB308952CB39FBB84
S11307A08EBBE09A8DB30895DC018CB341155105DD
S11307B089F0E62FF72F20E030E0C9018A0F9B1F54
S11307C09FBB8EBBE09A8DB381932F5F3F4F24175D
S11307D0350799F708952CB39FBB8EBBE09A8DB370
S11307E0861719F06DBBE29AE19A0895DC01411570
S11307F05105B9F0E62FF72F20E030E08CB3C901A2
S11308008A0F9B1F9FBB8EBBE09A9DB38191981763
S113081019F08DBBE29AE19A2F5F3F4F24173507F9
S113082069F7089584E460E041E00E948C0084E468
S113083061E041E00E948C0084E462E041E00E94B7
S11308408C0084E463E041E00E948C0084E464E072
S113085040E00E948C0084E465E040E00E948C004B
S113086084E466E040E00E948C0084E467E040E0B9
S11308700E948C0084E464E041E00E94E30284E48A
S113088065E041E00E94E30284E466E041E00E9406
S1130890E30284E467E041E00E94E30208950F93D9
S11308A01F93CF93DF93CDB7DEB760970FB6F8945D
S11308B0DEBF0FBECDBFDE011196EAE6F0E080E1B7
S11308C001900D928150E1F700E084E460E041E0A2
S11308D00E941D0184E461E041E00E941D0184E462
S11308E062E041E00E941D0184E463E041E00E9473
S11308F01D0184E4602F40E00E941D0110E0612F7F
S11309006C5F84E40E94FB01882361F4E02FF0E033
S1130910EE0FFF1FEE0FFF1FE10FF11DEC0FFD1F88
S1130920818104C01F5F143051F70BC060960FB66D
S1130930F894DEBF0FBECDBFDF91CF911F910F9111
S113094008950F5F043009F68FEFF0CF81E460E083
S113095041E00E941D018FE99FE00197F1F700C07B
S1130960000081E460E040E00E941D018FE99FE007
S11309700197F1F700C000000895CF93C82F682FA6
S113098062956F7081E40E949A0381E462E041E021
S11309900E941D010E94A60481E46C2F0E949A0308
S11309A081E462E041E00E941D010E94A6048FECF4
S11309B097E00197F1F700C00000CF910895CF931D
S11309C0C82F682F62956F7081E40E949A0381E4B6
S11309D062E040E00E941D010E94A60481E46C2FA5
S11309E00E949A0381E462E040E00E941D010E949B
S11309F0A6048FEC97E00197F1F700C00000CF91B7
S1130A0008958FEF91EEA4E081509040A040E1F76B
S1130A1000C0000081E464E041E00E948C0081E4B5
S1130A2065E041E00E948C0081E466E041E00E94C0
S1130A308C0081E467E041E00E948C0081E460E086
S1130A4041E00E948C0081E462E041E00E948C005D
S1130A5081E461E041E00E948C0081E461E040E0D7
S1130A600E941D0182E00E94DF04AFE1BEE4119701
S1130A70F1F700C0000088E20E94DF048FEC97E0E9
S1130A800197F1F700C000008EE00E94DF04AFEC94
S1130A90B7E01197F1F700C000008FE19EE40197E1
S1130AA0F1F700C0000086E00E94DF04AFECB7E07D
S1130AB01197F1F700C00000089581E00E94DF045F
S1130AC08FE19EE40197F1F700C000000895CF93F1
S1130AD0DF93EC018881882331F021960E94BD04C4
S1130AE089918823D9F7DF91CF910895282F215038
S1130AF0223070F4613170F4662371F0813019F49E
S1130B00962F91580AC0823041F4962F915405C013
S1130B1090E803C090E801C090E8892F0E94DF04A8
S1130B208FEC97E00197F1F700C0000008950E9450
S1130B3012040E94010582E40E944900A09AA19A2D
S1130B40A29AA39AA49AA59A8CE00E94DF048AE749
S1130B5090E00E9467058FEF94E3ACE081509040F1
S1130B60A040E1F700C000000E947D080F2EF0E9CC
S1130B708F2EF0E09F2EF02D0F2EF7E8EF2EF0E0F1
S1130B80FF2EF02D0F2EF2EBCF2EF0E0DF2EF02D06
S1130B900F2EFFEDAF2EF0E0BF2EF02D0F2EFAEE4C
S1130BA06F2EF0E07F2EF02D0EEC10E00F2EFDEBFB
S1130BB04F2EF0E05F2EF02D0E944F048093290108
S1130BC08F3F09F443C1813309F030C1C1EAD0E059
S1130BD00E945D05C7010E94670581E067E00E94ED
S1130BE076058FE799EAA3E081509040A040E1F7B1
S1130BF000C000000E944F0480932C018F3FD1F36A
S1130C000E94BD048FE799EAA3E081509040A04080
S1130C10E1F700C000000E944F0480932A018F3F37
S1130C20D1F30E94BD048FE799EAA3E0815090407C
S1130C30A040E1F700C0000040912A0180912C01FE
S1130C4090E0880F991F9C01220F331F220F331F3E
S1130C50820F931F840F911D80519240909316012F
S1130C608093150189319105B0F00E945D05C4019E
S1130C700E94670582E061E00E947605CE010E9431
S1130C8067058FEF92E5A7E081509040A040E1F71F
S1130C9000C000009DCF0E945D05C6010E9467054B
S1130CA081E069E00E9476058FE799EAA3E081502C
S1130CB09040A040E1F700C000000E944F048093E0
S1130CC02C018F3FD1F30E94BD048FE799EAA3E082
S1130CD081509040A040E1F700C000000E944F0402
S1130CE080932A018F3FD1F30E94BD048FE799EAD4
S1130CF0A3E081509040A040E1F700C00000409183
S1130D002A0180912C0190E0880F991F9C01220FE9
S1130D10331F220F331F820F931F840F911D8051A5
S1130D20924090931801809317018D339105B0F090
S1130D300E945D05C2010E94670582E061E00E9495
S1130D407605C8010E9467058FEF92E5A7E0815000
S1130D509040A040E1F700C000009DCF0E945D05D7
S1130D60C5010E94670581E069E00E9476058FE76E
S1130D7099EAA3E081509040A040E1F700C0000050
S1130D800E944F0480932C018F3FD1F30E94BD0435
S1130D908FEF91EEA4E081509040A040E1F700C0B5
S1130DA000000E944F0480932A018F3FD1F30E94D8
S1130DB0BD048FE799EAA3E081509040A040E1F799
S1130DC000C0000090912A01905180912C01880F5D
S1130DD0282F220F220F820F980F909327018091C2
S1130DE027018D33B0F00E945D05C3010E946705A1
S1130DF082E061E00E947605C8010E9467058FEFDA
S1130E0092E5A7E081509040A040E1F700C00000C7
S1130E10A5CF81E090E09093200180931F010E9470
S1130E205D058AEF90E00E94670510C00E945D0591
S1130E3086E091E00E9467058FEF92E5A7E081507C
S1130E409040A040E1F700C00000B6CEA89AA99A4D
S1130E50AA9AAB9AAC9AAD9880912701CAE06C2FFC
S1130E600E94880882E4692F0E944D00AFE0B7E237
S1130E701197F1F700C00000A89AA99AAA9AAB9A10
S1130E80AD9AAC98809127016C2F0E948808682F36
S1130E9082E40E944D008FE097E20197F1F700C0D1
S1130EA00000A89AA99AAA9AAC9AAD9AAB98809194
S1130EB0170190911801CAE0D0E0BE010E94940885
S1130EC0682F82E40E944D00AFE0B7E21197F1F77A
S1130ED000C00000A89AA99AAB9AAC9AAD9AAA98B5
S1130EE08091170190911801BE010E94940882E438
S1130EF00E944D008FE097E20197F1F700C00000D7
S1130F00A89AAA9AAB9AAC9AAD9AA998809115011D
S1130F1090911601BE010E949408682F82E40E94F9
S1130F204D00AFE0B7E21197F1F700C00000A99AB5
S1130F30AA9AAB9AAC9AAD9AA8988091150190910F
S1130F401601BE010E94940882E40E944D008FE0C5
S1130F5097E20197F1F700C00000809127018C33DC
S1130F6058F0109227018091170190911801019671
S1130F7090931801809317018091170190911801A3
S1130F808C33910568F0109218011092170180912A
S1130F901501909116010196909316018093150105
S1130FA0809114018C3358F01092140180911B012C
S1130FB090911C01019690931C0180931B018091D8
S1130FC01B0190911C018C33910568F010921C0157
S1130FD010921B018091190190911A01019690932E
S1130FE01A0180931901809115019091160189319C
S1130FF0910530F081E090E090931A0180931901FB
S113100080912501909126018F31910578F081E03E
S113101090E0909326018093250180912301909183
S1131020240101969093240180932301809123014C
S1131030909124018D30910508F4BECD81E090E0BB
S113104090932401809323018091210190912201A6
S113105001969093220180932101AECD1F920F92AD
S11310600FB60F9211248F93809127018F5F809385
S11310702701809114018F5F809314018F910F9049
S11310800FBE0F901F901895789483B7816083BF2B
S113109083B7846083BF83B7886083BF80E58CBFD8
S11310A089B7826089BF0895BB9A83B7886083BF7C
S11310B083B7806483BF80E48CBF83B7816083BFC0
S11310C083B7846083BF83B7806183BF83B7806243
S11310D083BF0895BB9A83B7806483BF80E48CBFC9
S11310E083B7816083BF83B7846083BF83B7806124
S11310F083BF83B7806283BF089582B5886082BD51
S113110085B5846085BD789489B7806489BF089566
S1131110991B79E004C0991F961708F0961B881F45
S11311207A95C9F780950895AA1BBB1B51E107C0A6
S1131130AA1FBB1FA617B70710F0A61BB70B881F63
S1131140991F5A95A9F780959095BC01CD010895F2
S1071150F894FFCF3D
S11311543F065B4F666D7D477F6F373839503435B2
S1131164364D3132332D41303D2B534554205449AF
S11311744D452028312900484F5552533A2D2D000E
S1131184656E74657220686F757220616761696E3B
S1131194006265747765656E20303120746F203287
S11311A434004D494E555445533A2D2D00656E7403
S11311B46572206D696E7520616761696E00626590
S11311C4747765656E20303120746F203630005397
S11311D445434F4E44533A2D2D00656E7465722079
S11311E473656320616761696E00283129736574CE
S11311F42074696D650057524F4E47204E554D4239
S1071204455200004B
S9030000FC
