:100000000C942A000C9447000C9447000C94470071
:100010000C9447000C94DC090C9447000C944700A6
:100020000C9447000C9447000C9447000C94470034
:100030000C9447000C9447000C9447000C94470024
:100040000C9447000C9447000C9447000C94470014
:100050000C94470011241FBECFE5D8E0DEBFCDBF12
:1000600011E0A0E6B0E0E0EBF4E102C005900D92F3
:10007000AA38B107D9F711E0AAE8B1E001C01D9292
:10008000A33AB107E1F70E9497050C94560A0C9425
:1000900000006FEF0E945F020895CF93DF93CDB70A
:1000A000DEB72A970FB6F894DEBF0FBECDBFDE01D4
:1000B0001196E0E6F0E09AE001900D929150E1F7A0
:1000C000FE01E60FF11D61810E947E022A960FB6A5
:1000D000F894DEBF0FBECDBFDF91CF910895CF93CF
:1000E000C82F60E041E00E948C008C2F61E041E06D
:1000F0000E948C008C2F62E041E00E948C008C2FCB
:1001000063E041E00E948C00CF9108950E94740347
:1001100008950E949A030895843409F471C08534C7
:1001200048F4823499F1833408F04DC0813409F0E9
:1001300083C00FC0823651F1833620F4813609F036
:100140007BC007C0833609F43EC0843609F074C012
:1001500057C0413069F42AB381E090E0AC0102C09D
:10016000440F551F6A95E2F7BA01622B6ABB0895E6
:100170002AB381E090E0AC0102C0440F551F6A959C
:10018000E2F7BA01609562236ABB0895413069F4D1
:1001900027B381E090E0AC0102C0440F551F6A957F
:1001A000E2F7BA01622B67BB089527B381E090E0C4
:1001B000AC0102C0440F551F6A95E2F7BA01609581
:1001C000622367BB0895413069F424B381E090E075
:1001D000AC0102C0440F551F6A95E2F7BA01622BC9
:1001E00064BB089524B381E090E0AC0102C0440FE9
:1001F000551F6A95E2F7BA016095622364BB0895C2
:10020000413069F421B381E090E0AC0102C0440FB9
:10021000551F6A95E2F7BA01622B61BB089521B3BD
:1002200081E090E0AC0102C0440F551F6A95E2F7EF
:10023000BA016095622361BB0895843409F471C0EA
:10024000853448F4823499F1833408F04DC0813408
:1002500009F083C00FC0823651F1833620F4813615
:1002600009F07BC007C0833609F43EC0843609F02C
:1002700074C057C0413069F42BB381E090E0AC0109
:1002800002C0440F551F6A95E2F7BA01622B6BBB9F
:1002900008952BB381E090E0AC0102C0440F551FDC
:1002A0006A95E2F7BA01609562236BBB089541300D
:1002B00069F428B381E090E0AC0102C0440F551FFF
:1002C0006A95E2F7BA01622B68BB089528B381E012
:1002D00090E0AC0102C0440F551F6A95E2F7BA01E5
:1002E0006095622368BB0895413069F425B381E0CD
:1002F00090E0AC0102C0440F551F6A95E2F7BA01C5
:10030000622B65BB089525B381E090E0AC0102C08B
:10031000440F551F6A95E2F7BA016095622365BBE9
:100320000895413069F422B381E090E0AC0102C04D
:10033000440F551F6A95E2F7BA01622B62BB08951C
:1003400022B381E090E0AC0102C0440F551F6A95D2
:10035000E2F7BA016095622362BB0895843409F420
:100360003DC0853440F48234F9F0833450F5813453
:1003700009F040C00CC08236B9F0833618F48136DB
:10038000C9F505C08336E9F08436A1F527C02BB343
:1003900081E090E0AC0102C0440F551F6A95E2F77E
:1003A000BA0162276BBB089528B381E090E0AC01ED
:1003B00002C0440F551F6A95E2F7BA01622768BB75
:1003C000089525B381E090E0AC0102C0440F551FB1
:1003D0006A95E2F7BA01622765BB089522B381E00E
:1003E00090E0AC0102C0440F551F6A95E2F7BA01D4
:1003F000622762BB0895843409F44EC0853440F40A
:10040000823431F18334B0F5813409F057C00EC025
:100410008236F1F0833620F4813609F04FC006C0F1
:10042000833641F1843609F049C036C029B381E0F2
:1004300090E0062E02C0880F991F0A94E2F730E080
:100440008223932302C0959587956A95E2F70895D4
:1004500026B381E090E0062E02C0880F991F0A940F
:10046000E2F730E08223932302C0959587956A9541
:10047000E2F7089523B381E090E0062E02C0880FD2
:10048000991F0A94E2F730E08223932302C09595E6
:1004900087956A95E2F7089520B381E090E0062EF3
:1004A00002C0880F991F0A94E2F730E08223932359
:1004B00002C0959587956A95E2F70895089584346A
:1004C000D9F0853438F4823499F0833498F4813447
:1004D000A1F40CC0823661F0833618F4813669F4D9
:1004E00005C0833639F0843641F406C06ABB0895EE
:1004F00067BB089564BB089561BB08958434D9F047
:10050000853438F4823499F0833498F48134A1F43A
:100510000CC0823661F0833618F4813669F405C068
:10052000833639F0843641F406C06BBB089568BB4E
:10053000089565BB089562BB08958434D9F085346D
:1005400038F4823499F0833498F48134A1F40CC0E7
:10055000823661F0833618F4813669F405C083363B
:1005600039F0843641F406C089B3089586B30895FE
:1005700083B3089580B30895843409F1853438F441
:100580008234A9F08334B8F48134E1F40CC08236AB
:1005900071F0833618F48136A9F405C0833659F01A
:1005A000843681F40CC08BB380958BBB089588B3DF
:1005B000809588BB089585B3809585BB089582B3E7
:1005C000809582BB0895843409F471C0853448F461
:1005D000823499F1833408F04DC0813409F083C02E
:1005E0000FC0823651F1833620F4813609F07BC08A
:1005F00007C0833609F43EC0843609F074C057C082
:10060000413069F42BB381E090E0AC0102C0440FAB
:10061000551F6A95E2F7BA01622B6BBB08952BB3A5
:1006200081E090E0AC0102C0440F551F6A95E2F7EB
:10063000BA01609562236BBB0895413069F428B319
:1006400081E090E0AC0102C0440F551F6A95E2F7CB
:10065000BA01622B68BB089528B381E090E0AC0139
:1006600002C0440F551F6A95E2F7BA0160956223F4
:1006700068BB0895413069F425B381E090E0AC0196
:1006800002C0440F551F6A95E2F7BA01622B65BBA1
:10069000089525B381E090E0AC0102C0440F551FDE
:1006A0006A95E2F7BA016095622365BB089541300F
:1006B00069F422B381E090E0AC0102C0440F551F01
:1006C0006A95E2F7BA01622B62BB089522B381E01A
:1006D00090E0AC0102C0440F551F6A95E2F7BA01E1
:1006E0006095622362BB08956F70823481F0833419
:1006F00018F48134F1F405C0833479F08434C9F4FA
:1007000012C08BB3807F8BBB8BB3862B8BBB88B324
:10071000807F88BB88B3862B88BB85B3807F85BBF1
:1007200085B3862B85BB82B3807F82BB82B3682B67
:1007300062BB08956295607F823481F0833418F43F
:100740008134F1F405C0833479F08434C9F412C0E3
:100750008BB38F708BBB8BB3862B8BBB88B38F70A7
:1007600088BB88B3862B88BB85B38F7085BB85B368
:10077000862B85BB82B38F7082BB82B3682B62BB32
:1007800008958EBB9FBB6DBBE29AE19AE199FECFC3
:1007900008958EBB9FBBE19A8DB308952CB39FBB88
:1007A0008EBBE09A8DB30895DC018CB341155105E1
:1007B00089F0E62FF72F20E030E0C9018A0F9B1F58
:1007C0009FBB8EBBE09A8DB381932F5F3F4F241761
:1007D000350799F708952CB39FBB8EBBE09A8DB374
:1007E000861719F06DBBE29AE19A0895DC01411574
:1007F0005105B9F0E62FF72F20E030E08CB3C901A6
:100800008A0F9B1F9FBB8EBBE09A9DB38191981767
:1008100019F08DBBE29AE19A2F5F3F4F24173507FD
:1008200069F7089584E460E041E00E948C0084E46C
:1008300061E041E00E948C0084E462E041E00E94BB
:100840008C0084E463E041E00E948C0084E464E076
:1008500040E00E948C0084E465E040E00E948C004F
:1008600084E466E040E00E948C0084E467E040E0BD
:100870000E948C0084E464E041E00E94E30284E48E
:1008800065E041E00E94E30284E466E041E00E940A
:10089000E30284E467E041E00E94E30208950F93DD
:1008A0001F93CF93DF93CDB7DEB760970FB6F89461
:1008B000DEBF0FBECDBFDE011196EAE6F0E080E1BB
:1008C00001900D928150E1F700E084E460E041E0A6
:1008D0000E941D0184E461E041E00E941D0184E466
:1008E00062E041E00E941D0184E463E041E00E9477
:1008F0001D0184E4602F40E00E941D0110E0612F83
:100900006C5F84E40E94FB01882361F4E02FF0E037
:10091000EE0FFF1FEE0FFF1FE10FF11DEC0FFD1F8C
:10092000818104C01F5F143051F70BC060960FB671
:10093000F894DEBF0FBECDBFDF91CF911F910F9115
:1009400008950F5F043009F68FEFF0CF81E460E087
:1009500041E00E941D018FE99FE00197F1F700C07F
:10096000000081E460E040E00E941D018FE99FE00B
:100970000197F1F700C000000895CF93C82F682FAA
:1009800062956F7081E40E949A0381E462E041E025
:100990000E941D010E94A60481E46C2F0E949A030C
:1009A00081E462E041E00E941D010E94A6048FECF8
:1009B00097E00197F1F700C00000CF910895CF9321
:1009C000C82F682F62956F7081E40E949A0381E4BA
:1009D00062E040E00E941D010E94A60481E46C2FA9
:1009E0000E949A0381E462E040E00E941D010E949F
:1009F000A6048FEC97E00197F1F700C00000CF91BB
:100A000008958FEF91EEA4E081509040A040E1F76F
:100A100000C0000081E464E041E00E948C0081E4B9
:100A200065E041E00E948C0081E466E041E00E94C4
:100A30008C0081E467E041E00E948C0081E460E08A
:100A400041E00E948C0081E462E041E00E948C0061
:100A500081E461E041E00E948C0081E461E040E0DB
:100A60000E941D0182E00E94DF04AFE1BEE4119705
:100A7000F1F700C0000088E20E94DF048FEC97E0ED
:100A80000197F1F700C000008EE00E94DF04AFEC98
:100A9000B7E01197F1F700C000008FE19EE40197E5
:100AA000F1F700C0000086E00E94DF04AFECB7E081
:100AB0001197F1F700C00000089581E00E94DF0463
:100AC0008FE19EE40197F1F700C000000895CF93F5
:100AD000DF93EC018881882331F021960E94BD04C8
:100AE00089918823D9F7DF91CF910895282F21503C
:100AF000223070F4613170F4662371F0813019F4A2
:100B0000962F91580AC0823041F4962F915405C017
:100B100090E803C090E801C090E8892F0E94DF04AC
:100B20008FEC97E00197F1F700C0000008950E9454
:100B300012040E9401058CE00E94DF048AE790E025
:100B40000E94670582E061E00E94760587E890E0F8
:100B50000E9467058FEF94E3ACE081509040A04085
:100B6000E1F700C000000E942B0A0F2EFDE94F2E76
:100B7000F0E05F2EF02D0F2EF4E9AF2EF0E0BF2E47
:100B8000F02D0F2EFFEB8F2EF0E09F2EF02D0F2E6D
:100B9000FCEE6F2EF0E07F2EF02D0F2EF7EF2F2EB4
:100BA000F0E03F2EF02D0F2EFBEDCF2EF0E0DF2EEC
:100BB000F02D0E944F0480939F018F3F09F4A8C23B
:100BC000813309F02BC1CEEAD0E00E945D05C5015A
:100BD0000E94670581E067E00E9476058FE799EA49
:100BE000A3E081509040A040E1F700C000000E94C7
:100BF0004F048093A2018F3FD1F30E94BD048FE781
:100C000099EAA3E081509040A040E1F700C00000C5
:100C10000E944F048093A0018F3FD1F30E94BD0436
:100C20008FE799EAA3E081509040A040E1F700C02F
:100C300000004091A0018091A20190E0880F991FCF
:100C40009C01220F331F220F331F820F931F840F2B
:100C5000911D8051924090938C0180938B0189313A
:100C60009105B0F00E945D05C2010E94670582E017
:100C700061E00E947605CE010E9467058FEF92E544
:100C8000A7E081509040A040E1F700C000009DCF58
:100C90000E945D05C4010E94670581E069E00E9431
:100CA00076058FE799EAA3E081509040A040E1F7F4
:100CB00000C000000E944F048093A2018F3FD1F337
:100CC0000E94BD048FE799EAA3E081509040A040C4
:100CD000E1F700C000000E944F048093A0018F3F05
:100CE000D1F30E94BD048FE799EAA3E081509040C0
:100CF000A040E1F700C000004091A0018091A20156
:100D000090E0880F991F9C01220F331F220F331F81
:100D1000820F931F840F911D8051924090938E01FA
:100D200080938D018D339105B8F00E945D058AECAA
:100D300090E00E94670582E061E00E947605C601AE
:100D40000E9467058FEF92E5A7E081509040A04098
:100D5000E1F700C000009CCF0E945D05C3010E9426
:100D6000670581E069E00E9476058FE799EAA3E0D4
:100D700081509040A040E1F700C000000E944F0465
:100D80008093A2018F3FD1F30E94BD048FEF91EEBB
:100D9000A4E081509040A040E1F700C000000E9414
:100DA0004F048093A0018F3FD1F30E94BD048FE7D1
:100DB00099EAA3E081509040A040E1F700C0000014
:100DC0009091A00190518091A201880F282F220FAD
:100DD000220F820F980F90939D0180919D018D337A
:100DE000B0F00E945D05C1010E94670582E061E0EC
:100DF0000E947605C6010E9467058FEF92E5A7E085
:100E000081509040A040E1F700C00000A5CF81E0F4
:100E100090E090939601809395017AC1823309F016
:100E200067C1C7E0D1E001E111E00F2EF1E2EF2E42
:100E3000F1E0FF2EF02D0E945D05CE010E946705B6
:100E400081E068E00E9476058FE799EAA3E081508F
:100E50009040A040E1F700C000000E944F04809342
:100E6000A2018F3FD1F30E94BD048FEF91EEA4E069
:100E700081509040A040E1F700C000000E944F0464
:100E80008093A0018F3FD1F30E94BD048FE799EAC0
:100E9000A3E081509040A040E1F700C000004091E5
:100EA000A0018091A20190E0880F991F9C01220F60
:100EB000331F220F331F820F931F840F911D805108
:100EC000924090939A01809399018D309105B0F0F2
:100ED0000E945D05C8010E94670582E061E00E94F2
:100EE0007605C7010E9467058FEF92E5A7E0815064
:100EF0009040A040E1F700C000009DCFC2E3D1E0E8
:100F00000AE311E00F2EFBE4EF2EF1E0FF2EF02DAF
:100F10000E945D05CE010E94670581E066E00E94A7
:100F200076058FEF91EEA4E081509040A040E1F76C
:100F300000C000000E944F048093A2018F3FD1F3B4
:100F40000E94BD048FE799EAA3E081509040A04041
:100F5000E1F700C000000E944F048093A0018F3F82
:100F6000D1F30E94BD048FEF91EEA4E08150904038
:100F7000A040E1F700C000004091A0018091A201D3
:100F800090E0880F991F9C01220F331F220F331FFF
:100F9000820F931F840F911D8051924090939C016A
:100FA00080939B018F319105B0F00E945D05C801CF
:100FB0000E94670582E061E00E947605C7010E94F9
:100FC00067058FEF92E5A7E081509040A040E1F7E0
:100FD00000C000009DCF0E945D058CE591E00E945D
:100FE000670581E067E00E9476058FE799EAA3E054
:100FF00081509040A040E1F700C000000E944F04E3
:101000008093A2018F3FD1F30E94BD048FE799EA3C
:10101000A3E081509040A040E1F700C000000E9492
:101020004F048093A0018F3FD1F30E94BD048FE74E
:1010300099EAA3E081509040A040E1F700C0000091
:101040000E944F048093A1018F3FD1F30E94BD0401
:101050008FE799EAA3E081509040A040E1F700C0FB
:1010600000000E944F0480939E018F3FD1F30E94A5
:10107000BD048FE799EAA3E081509040A040E1F7DA
:1010800000C000008091A00190E024E630E0829F43
:10109000B001839F700D929F700D11248091A20169
:1010A00090E0C09728EE33E0829FA001839F500D0F
:1010B000929F500D1124460F571F8091A10190E07F
:1010C000880F991F9C01220F331F220F331F820F9D
:1010D000931F840F951F20919E01820F911D805DAB
:1010E000944190939801809397010E945D0510C0F0
:1010F0000E945D0587E691E00E9467058FEF92E50B
:10110000A7E081509040A040E1F700C0000051CD21
:1011100081E061E00E94760584E791E00E94670526
:1011200081E066E00E94760580918B0190918C01B0
:10113000CAE0D0E0BE010E94420A862F805D0E9474
:10114000BD0480918B0190918C01BE010E94420AE6
:10115000805D0E94BD040AE711E0C8010E94670596
:1011600080918D0190918E01BE010E94420A862FCE
:10117000805D0E94BD0480918D0190918E01BE0121
:101180000E94420A805D0E94BD04C8010E9467055A
:1011900080919D011AE0612F0E94360A805D0E94B5
:1011A000BD0480919D01612F0E94360A892F805DC8
:1011B0000E94BD0482E061E00E9476058CE791E028
:1011C0000E94670582E066E00E94760580919901A1
:1011D00090919A01BE010E94420A862F805D0E9472
:1011E000BD048091990190919A01BE010E94420A2A
:1011F000805D0E94BD0402E811E0C8010E946705FD
:1012000080919B0190919C01BE010E94420A862F11
:10121000805D0E94BD0480919B0190919C01BE0164
:101220000E94420A805D0E94BD04C8010E946705B9
:10123000809197019091980168EE73E00E94420AB4
:10124000862F805D0E94BD04809197019091980146
:1012500064E670E00E94420ACB01BE010E94420A8D
:10126000805D0E94BD048091970190919801BE011C
:101270000E94420ACB01BE010E94420A805D0E9488
:10128000BD048091970190919801BE010E94420A8D
:10129000805D0E94BD0480919D018C3358F01092B6
:1012A0009D0180918D0190918E01019690938E0108
:1012B00080938D0180918D0190918E018C339105E9
:1012C00068F010928E0110928D0180918B019091A7
:1012D0008C01019690938C0180938B012091950154
:1012E000309196012130310581F480918B019091EC
:1012F0008C018D30910548F481E06FE00E94760505
:1013000084E891E00E94670529C080918B0190914B
:101310008C010D978C30910508F521303105F1F4E1
:1013200080919B0190919C01019690939C018093E8
:101330009B0181E06FE00E94760587E891E00E94C2
:10134000670580918B0190918C010C9790938C0193
:1013500080938B01109296011092950180919B01D0
:1013600090919C018F31910578F081E090E090930D
:101370009C0180939B018091990190919A01019623
:1013800090939A01809399018091990190919A018B
:101390008D30910508F40DCC81E090E090939A0196
:1013A0008093990180919701909198010196909373
:1013B000980180939701FDCB1F920F920FB60F9269
:1013C00011248F9380919D018F5F80939D01809167
:1013D0008A018F5F80938A018F910F900FBE0F90CB
:1013E0001F901895789483B7816083BF83B784601A
:1013F00083BF83B7886083BF80E58CBF89B7826075
:1014000089BF0895BB9A83B7886083BF83B7806420
:1014100083BF80E48CBF83B7816083BF83B7846060
:1014200083BF83B7806183BF83B7806283BF089522
:10143000BB9A83B7806483BF80E48CBF83B781602D
:1014400083BF83B7846083BF83B7806183BF83B763
:10145000806283BF089582B5886082BD85B584604F
:1014600085BD789489B7806489BF0895991B79E018
:1014700004C0991F961708F0961B881F7A95C9F724
:1014800080950895AA1BBB1B51E107C0AA1FBB1F73
:10149000A617B70710F0A61BB70B881F991F5A9500
:1014A000A9F780959095BC01CD010895F894FFCFE0
:1014B0003F065B4F666D7D477F6F37383950343557
:1014C000364D3132332D41303D2B53455420544954
:1014D0004D45202831290053455420444154412092
:1014E00028322900484F5552533A2D2D00656E740D
:1014F000657220686F757220616761696E00626550
:10150000747765656E20303120746F203234004D61
:10151000494E555445533A2D2D00656E7465722021
:101520006D696E7520616761696E006265747765CB
:10153000656E20303120746F203630005345434FA4
:101540004E44533A2D2D00656E74657220736563A9
:1015500020616761696E004D4F4E5448533A2D2DFE
:1015600000656E746572206D6F6E20616761696ED3
:10157000006265747765656E20303120746F2031AC
:101580003200444159533A2D2D00656E7465722026
:101590006461797320616761696E00626574776563
:1015A000656E20303120746F203330005945415230
:1015B000533A2D2D2D2D0057524F4E47204E554D4D
:1015C0004245520054696D653A003A0044617461C5
:0A15D0003A002F00414D00504D007D
:00000001FF
